:100000000C94A9020C94F0020C94F0020C94F002EF
:100010000C944A260C94F0020C94F0020C94F0021A
:100020000C94F0020C94F0020C94A5220C94612222
:100030000C9473250C94F0020C94F0020C94F002D2
:100040000C94F0020C94F0020C94F0020C94F00268
:100050000C94F0020C944F250C94F0020C94F002D6
:100060000C94F0020C94F0020C94F0020C94F00248
:100070000C94F0020C94F0020C94F0020C94F00238
:100080000C94F0020C94F0020C94F0020C94F00228
:100090000C94F0020C94F0020C94F0020C94F00218
:1000A0000C94F0020C94F0020C94F002A900AA0047
:1000B000A900AA00010001000100010001000100E7
:1000C0000100010001000100010001000001010127
:1000D0000101010101010202020202020202020305
:1000E00003030303030303040404040404040505D5
:1000F0000505050606060606070707070708080898
:1001000008090909090A0A0A0B0B0B0C0C0C0D0D46
:100110000D0E0E0E0F0F0F101011111112121313DE
:100120001414151516161717181819191A1A1B1B57
:100130001C1D1D1E1E1F20202122222324242526B3
:1001400026272829292A2B2C2D2D2E2F30313232EB
:10015000333435363738393A3B3C3D3E3F404142F7
:10016000434445464748494A4C4D4E4F50515354DD
:10017000555658595A5B5D5E5F6162646566686991
:100180006B6C6D6F7072737577787A7B7D7E808211
:10019000838587888A8C8E8F91939596989A9C9E5A
:1001A000A0A2A3A5A7A9ABADAFB1B3B5B7BABCBE6A
:1001B000C0C2C4C6C9CBCDCFD1D4D6D8DBDDDFE237
:1001C000E4E7E9EBEEF0F3F5F8FAFDFF165C1E004C
:1001D0001F002000210022002D002B0014001A0017
:1001E0000800150017002F00394204001600070010
:1001F00009000A002602E1001D001B00060019008C
:1002000005002F02E000E300E200C25C03512C0075
:100210004C00000000000000000000002C004C001A
:100220002A00270026002500240023002E0031008C
:10023000130012000C0018001C00300034003300C2
:100240000F000E000D000B002702280038003700B9
:1002500036001000110030024F00520051005000D3
:1002600002512C00280000000000000000000000E7
:100270002C002800165C1E001F0020002100220018
:100280002D002B0014001A00090013000A002F0093
:100290003942040015001600170007002602E1008D
:1002A0001D001B000600190005002F02E000E300FE
:1002B000E200C25C03512C004C0000000000000072
:1002C000000000002C004C002A002700260025001A
:1002D000240023002E00310033001C0018000F0002
:1002E0000D003000340012000C00080011000B005B
:1002F0002702280038003700360010000E003002B8
:100300004F0052005100500002512C002800000004
:1003100000000000000000002C0028003A003B0014
:100320003C003D003E003F00010001004E00520035
:100330004B000100010001000100500051004F007E
:1003400001000100010001000100010001000100A5
:1003500001000100010001000100C35C0100010077
:10036000010000000000000000000000010001008A
:1003700045004400430042004100400046004A005E
:1003800046004B0052004E00010047004D0049005E
:100390004F00510050000100530001000100010016
:1003A0000100010001000100A900AA00A800AB00A3
:1003B000AE0001000100000000000000000000008D
:1003C000010001003A003B003C003D003E003F00C0
:1003D00001000100C85CC95CC75C005C0100010051
:1003E0000100C65CCA5CC55C085D0100010001003B
:1003F000CC5C0100CB5C01000100010001000100A8
:100400000100C35C010001000100000000000000C9
:1004100000000000010001004500440043004200CC
:1004200041004000010001000100610060005F0028
:1004300001000100010001005E005D005C000100A0
:100440000100010001005B005A0059000100010099
:1004500001520052530063006200010001000000DD
:1004600000000000000000000100010005010980FB
:10047000A10185031A81002A8300160100260300CA
:10048000950175108100C0050C0901A10185041AB0
:1004900001002A9C02160100269C0295017510811C
:1004A00000C005010906A101050719E029E71500AB
:1004B00025019508750181029501750881010507DF
:1004C000190029FF150026FF009506750881000513
:1004D000081901290595057501910295017503918A
:1004E00001C009023B00020100A032090400000122
:1004F00003010100092111010001224000070581CB
:100500000308000A09040100010300000009211189
:100510000100012236000705820320000A120110A3
:100520000100000008EDFE6030020001020301043A
:100530000330000000080353006F006C0000000C43
:10054000035200470042004B004200000004030930
:10055000040011241FBECFEFDAE0DEBFCDBF04B62A
:1005600003FE27C08091840590918505A0918605A2
:10057000B09187058730904BA740B04BD1F41092D3
:10058000840510928505109286051092870514BE89
:1005900084B7877F84BF0FB6F894A89580916000D8
:1005A000886180936000109260000FBEE0E0F8E385
:1005B000099525E0A4E1B3E001C01D92A438B2077B
:1005C000E1F713E0A0E0B1E0E4EFF0E502C0059050
:1005D0000D92A431B107D9F70E9480230C942828EA
:1005E0000C940000E8EDF0E080818E7F8083109213
:1005F000E2001092DA001092E100A0EEB0E08C91DF
:1006000081608C9380818F77808319BCA7EDB0E0E7
:100610008C918E7F8C9380818F7E808310925E057B
:1006200008952091E4003091E50095E6A90120911C
:10063000EC00822F817020FF06C08091E80080FFCF
:1006400006C080E008952091E80022FD1AC0809144
:100650006B05882389F0853089F08091EB0085FD5A
:100660000FC02091E4003091E50042175307F9F2E2
:100670009150E1F684E0089582E0089583E00895C2
:1006800081E00895EF92FF920F931F93CF937C0127
:100690008B010E941103C82F811117C08091E800BF
:1006A00085FD0BC08091E8008E778093E8000E9462
:1006B0001103882399F3C82F08C0F70181917F01A6
:1006C0008093F1000150110949F78C2FCF911F91B0
:1006D0000F91FF90EF90089580916D0587FF13C0F3
:1006E0008091E80082FF06C08091E8008B778093BC
:1006F000E80004C080916B058111F2CF08958091CC
:100700006B058823D9F38091E80080FFF8CF8091B2
:10071000E8008E77ECCF982F9093E900242F762F66
:1007200050E0891731F07091EC002091ED0050916C
:10073000F00021FD07C09F5F973071F78093E900BB
:1007400081E008953091EB003E7F3093EB003091D3
:10075000ED003D7F3093ED003091EB003160309340
:10076000EB007093EC002093ED005093F00020918B
:10077000EE0027FDE0CF80E00895CF92DF92EF9268
:10078000FF920F931F93CF93DF93C8EDD0E0888142
:100790008F7E8883E7EDF0E080818160808384E054
:1007A00082BF81E080935E0588818E7F888302EE20
:1007B00010E0F80110821092DA0081EEC82ED12CE0
:1007C000F601108288818F7788838881806888838A
:1007D00088818F7D888319BC10926B0510926C05FF
:1007E00010926A051092690590EEE92EF12CF7013E
:1007F00080818B7F808388818160888342E060E094
:1008000080E00E948B03F60180818E7F8083F80157
:10081000808181608083808188608083F70180810E
:100820008E7F8083888180618883DF91CF911F9143
:100830000F91FF90EF90DF90CF900895FC01809191
:1008400073059091740586179707A0F061157105DF
:1008500029F49091E8009E779093E80090E061156C
:10086000710551F4911108C08091E80082FF34C0F5
:1008700080E00895BC01F2CF80916B058823C1F11F
:100880008530C1F18091E80083FD30C08091E8009F
:1008900082FDEACF8091E80080FFE1CF8091F300F4
:1008A0002091F200382F6115710519F028303105BB
:1008B00058F091E02830310509F090E02091E800EF
:1008C0002E772093E800CBCF81918093F100615087
:1008D00071092F5F3F4FE7CF80916B05882341F06F
:1008E000853041F08091E80083FFBECF81E008951C
:1008F00082E0089583E00895089580916005089549
:10090000CF92DF92EF92FF920F931F932FB7F8943D
:1009100040912A0550912B0560912C0570912D0571
:100920002FBF6A017B01EE24FF248C0130E020E020
:10093000C016D106E206F30650F0481B590BCA0157
:100940001F910F91FF90EF90DF90CF90089541504D
:100950005109F3CF2FB7F89480912A0590912B0578
:10096000A0912C05B0912D052FBF08959C01FC018D
:1009700032969FEF80E04191461751F09F3F19F466
:10098000411101C0982F8F5F8630A9F79F3F09F46E
:100990000895290F311D97FD3A95F9016283089555
:1009A00080912505811110922505089580912405D7
:1009B00090912305892B90912205892B8093140314
:1009C00090912505992391F0892B8093140320E0C1
:1009D00086E193E0FC013191CF0131112F5FF3E00B
:1009E0008C319F07B9F721110E94D004E091410595
:1009F000F0914205309731F00280F381E02D84E1DF
:100A000093E00994089527E0929F800D1124982F78
:100A1000977086958695869525E0829FF001112432
:100A2000EA51FB4F50E040E080E0219130E0092E98
:100A300002C0369527950A94E2F721703327042ED9
:100A400001C0220F0A94EAF7822B4F5F5F4F4530B7
:100A5000510559F7089527E0929F800D1124982F92
:100A6000977041E001C0440F9A95EAF78695869504
:100A7000869595E0899FF0011124EA51FB4F90E0A3
:100A800080E070E05191DF0111979B01082E02C0B8
:100A9000369527950A94E2F721702195252724237E
:100AA00025272C9301968530910561F70895809153
:100AB000E5049091B404981301C008958F5F877086
:100AC000FACF882341F08095909123058923809364
:100AD00023050C94D6040895882339F090912305BA
:100AE000982B909323050C94D6040895882341F005
:100AF0008095909124058923809324050C94D60435
:100B00000895882339F090912405982B909324051B
:100B10000C94D60408952091A8043091A9042817B4
:100B2000390771F09093A9048093A804E0914105DE
:100B3000F0914205309721F00084F185E02D099471
:100B400008952091A6043091A7042817390771F061
:100B50009093A7048093A604E0914105F09142058B
:100B6000309721F00680F781E02D099408951092C6
:100B70002305109222050E94D60490E080E00E9496
:100B8000A10590E080E00C948B0560931D057093A7
:100B90001E0580931F05909320050C94B7050F93B5
:100BA0001F9341E050E060E070E004C0440F551F27
:100BB000661F771F8A95D2F7CB01BA0160957095B1
:100BC0008095909500911D0510911E0520911F059F
:100BD0003091200560237123822393231F910F916D
:100BE0000C94C5059091210580958923809321055A
:100BF000282F277071F4282F082E000C330B921722
:100C0000130639F08595859585950E94CF0510923C
:100C1000210508950F931F9341E050E060E070E0DC
:100C200004C0440F551F661F771F8A95D2F7809125
:100C30001D0590911E05A0911F05B09120058A0108
:100C40009B01082B192B2A2B3B2BC901B8011F91A3
:100C50000F910C94C505609326057093270580932A
:100C60002805909329050C94B7058823B1F19CEFD2
:100C7000980F913A70F4E6E1F3E09191891303C083
:100C8000DF0111971C9243E0EC31F407B1F70C94AB
:100C9000D60490E2980F983088F4877021E030E015
:100CA000A90102C0440F551F8A95E2F7CA01809539
:100CB00090912405892380932405E9CF9BE5980F23
:100CC000933020F490E080E00C94A105885A87319D
:100CD00020F490E080E00C948B050895882309F4BB
:100CE000C1C09CEF980F913A38F4682F84E193E0EB
:100CF0000E94B6040C94D60490E2980F983068F4E1
:100D0000877021E030E001C0220F8A95EAF78091D8
:100D10002405822B80932405EDCF9BE5980F93301B
:100D200070F4853A31F0863A39F083E890E00C941B
:100D3000A10581E890E0FBCF82E890E0F8CF98E54C
:100D4000980F973108F08EC0883A09F446C0893A66
:100D500009F446C08A3A09F446C08B3A09F446C001
:100D60008C3A09F446C08B3B09F446C08C3B09F42D
:100D700046C08D3A09F446C0803B09F446C08E3A1D
:100D800009F446C08F3A09F446C0813B09F446C0D5
:100D9000823B09F446C0833B09F446C0843B09F416
:100DA00046C0853B09F446C0863B09F446C0873BF4
:100DB00009F446C0883B09F446C0893B09F446C0A3
:100DC0008D3B09F446C08E3B09F446C08A3B09F4CA
:100DD00046C090E080E00C948B0582EE90E0FBCF63
:100DE00089EE90E0F8CF8AEE90E0F5CF85EB90E0C9
:100DF000F2CF86EB90E0EFCF83EB90E0ECCF84EB8B
:100E000090E0E9CF87EB90E0E6CF8CEC90E0E3CF89
:100E10008DEC90E0E0CF83E891E0DDCF8AE891E0CF
:100E2000DACF82E991E0D7CF84E991E0D4CF81E2B3
:100E300092E0D1CF83E292E0CECF84E292E0CBCFBA
:100E400085E292E0C8CF86E292E0C5CF87E292E0E9
:100E5000C2CF8FE690E0BFCF80E790E0BCCF8AE2C0
:100E600092E0B9CF0895E0914105F09142053097A5
:100E700021F00190F081E02D099480E00895FA01BD
:100E8000811101C0FB010994EDE2F3E081836083ED
:100E90004283339694E0E13AF907C1F70895FC01E3
:100EA000EE0FFF1FE80FF91FE35DFC4F61834083E6
:100EB000228308950C9444070C944F070F931F93BB
:100EC00010E0F801EE0FFF1FE056FE4F90819057A3
:100ED00097FD9195000F111FF801EF55FE4F00810E
:100EE0000552110B2003F001219FF00D112408E39E
:100EF00010E0091B110997FD139540039001419FD4
:100F0000300D1124E20FF31F9F01220F331F2E0F0C
:100F10003F1F37FF02C021583F4F220F232F221FB0
:100F2000330B620F1F910F9108950F931F93522F50
:100F300010E0F801EE0FFF1FEF55FE4FA081A55204
:100F4000BB0B9D015203F001539FF00D1124000FC4
:100F5000111FD801A056BE4F0C910057110B400332
:100F60009001419F300D11242E0F3F1F37FF02C00B
:100F7000215C3F4F96E0359527959A95E1F7620FF2
:100F80001F910F9108950F931F93522F10E0F801B6
:100F9000EE0FFF1FEF55FE4FA081A552BB0B9D0129
:100FA0005203F001539FF00D1124000F111FD801BF
:100FB000A056BE4F0C910057110B40039001419F6A
:100FC000300D11242E0F3F1F37FF02C021583F4F15
:100FD000220F232F221F330B620F1F910F910895B1
:100FE000EF920F93972F23E0029FB0011124759584
:100FF00067956E0D792F0F91EF900895322F50E085
:10100000FA01EE0FFF1FEF55FE4F9081955297FDAD
:101010009195440F551FFA01E056FE4F2081231B86
:10102000330B290F311D97FD3A95620F0895E42F78
:10103000F0E0EE0FFF1FEF55FE4F6081621B089539
:10104000E42FF0E0EE0FFF1FE056FE4F6081621BC1
:101050000895622F0895E42FF0E0EE0FFF1FE05691
:10106000FE4F408134EE439F412D1124E82FF0E0E4
:1010700050E0445E5F4FDA01A21BB1099D01B7FF4A
:1010800003C031952195310993E0220F331F9A95C2
:10109000E1F7AF01421B530B9A0157FD20E0582F97
:1010A000259F212D1124822F0895E42FF0E0EE0FCB
:1010B000FF1FE056FE4F408134EE439F412D112427
:1010C000E72FF0E050E0445E5F4FDA01A21BB10968
:1010D0009D01B7FF03C031952195310993E0220F9F
:1010E000331F9A95E1F7AF01421B530B9A0157FD4D
:1010F00020E0279F212D1124722F0895FC019B01D0
:10110000009729F480E077FF2BC080E80895AC01B8
:1011100097FF04C044275527481B590BB901640F9A
:10112000751F37FD10C0241B350BC901A5E0880FC2
:10113000991FAA95E1F70E94FD2680E2861BF7FF22
:101140000FC081950895CB0165E0880F991F6A95BE
:10115000E1F7BA01621B730B0E94FD2680E6EECF19
:101160000895EF920F93CF93DF93D72FC82FC90124
:101170000E19BA010E947E08602F681B7D2F8C2FEC
:10118000DF91CF910F91EF9008950F93CF93DF935D
:10119000D72FC82FC901BA010E947E08682F600F9F
:1011A0007D2F8C2FDF91CF910F910895EF920F93A8
:1011B0001F93CF93DF93D62FC72F182FC9010E1976
:1011C000010FBA010E947E08081B202F219F212DAC
:1011D0001124822F6D2F7C2FDF91CF911F910F91C2
:1011E000EF900895EF920F931F93CF93DF93D62F35
:1011F000172FC82FC9010E19070FBA010E947E08C8
:10120000702F781B719F712D11246D2F8C2FDF9102
:10121000CF911F910F91EF9008950F931F93CF934C
:10122000DF93D62FC72F182FC901212F201B022F84
:10123000BA010E947E08982F990F990F891B800F81
:10124000282F219F212D1124822F6D2F7C2FDF919C
:10125000CF911F910F9108950F931F93CF93DF9319
:10126000D62F172FC82FC901272F201B022FBA01F5
:101270000E947E08982F990F990F782F791B700F75
:10128000719F712D11246D2F8C2FDF91CF911F91A4
:101290000F910895E82F86FDE0952E2F2F7086FD83
:1012A0002F5FE695E695E695E670F0E0EF5DFE4F80
:1012B0009181929F902D212D112492959F702295BE
:1012C000207F922B2081920F87FD919580E8890FD6
:1012D0000895AC018230910508F408959FEF413ED6
:1012E0008EE1580740F49A0195E0369527959A9536
:1012F000E1F798E0920F61E0E62FE90FFF27FF1F6B
:101300009F0135952795822F229FF001239FF00D95
:10131000F00D11244E175F0738F49FEF920F9617C8
:1013200058F78FEF860F08952F3FE9F361E0620FC2
:10133000F6CF0F93CF93DF93D72FC82F47FD41955B
:1013400088E390E0841B910947FD9395889FB00145
:10135000899F700D700D1124229FC001239F900D55
:10136000900D1124860F971F0E946909982F990FDD
:10137000890F682F600F7D2F8C2FDF91CF910F91F8
:10138000089530E020E0869F212D969F200D311D8D
:101390001124C9010895AF92BF92CF92DF92FF92BC
:1013A0000F931F93CF93DF93362F472FE82FF0E053
:1013B000E453FF4F71110DC06491762F862FDF919A
:1013C000CF911F910F91FF90DF90CF90BF90AF9082
:1013D0000895C72FD0E02491F22E022F10E056E09E
:1013E000659FC0011124EFEFF0E0BF010E94E926E4
:1013F000832F90E0880F991F35E5369FD001379FE6
:10140000B00D11248A1B9B0B982F990F980F6F0119
:10141000CC1ADD0AC09ED001C19EB00DD09EB00D89
:1014200011248B2F949FA0011124452F55276F0164
:10143000C41AD50AC09EA001C19E500DD09E500D69
:1014400011245F01A91AB108AC9E6001AD9ED00CB9
:10145000BC9ED00C1124CD2CDD24EC19FD09E09F9D
:10146000E001E19FD00DF09FD00D1124ED2F6230EF
:101470007105A1F048F46115710569F061307105DD
:1014800089F0EB2F852F07C06430710571F088F06B
:1014900066307105B1F76E2F722F91CFE22F2B2F8F
:1014A0008D2FF9CFE22F252FF6CFEB2F822F2D2F67
:1014B000F2CF2B2F8F2DE52FEECF9F92AF92BF92C1
:1014C000CF92DF92EF92FF920F931F93CF93DF9310
:1014D0006C01C0911B0189E1C89FC02D112419E145
:1014E0001C0FB12E1D3710F03CE7B32E6091810523
:1014F0006695669580917505909176050E94C10963
:10150000F82E80E48F0D0E944A0990E8A92EA80EBB
:101510008F2D0E944A0920E8922E980ED0E0CB151C
:1015200080F081E01C3708F080E0DF91CF911F91BF
:101530000F91FF90EF90DF90CF90BF90AF909F9072
:101540000895FE01E856FD4F808190911C0189238A
:10155000A1F060917E0570917F0580918005EF2C50
:101560000C2F292D4A2DF60109950E94CB09462FF3
:10157000282F672FCE010E945C072196D0CF7F9243
:101580008F929F92AF92BF92CF92DF92EF92FF9293
:101590000F931F93CF93DF935C01C0911B0189E1EF
:1015A000C89FC02D112419E11C0FF12E1D3710F01A
:1015B0003CE7F32E609181056695809175059091C9
:1015C00076050E94C109782ED0E0CF1590F081E019
:1015D0001C3708F080E0DF91CF911F910F91FF90B1
:1015E000EF90DF90CF90BF90AF909F908F907F90C3
:1015F0000895FE01E856FD4F808190911C018923DA
:10160000C9F1CE01880F991F845B9E4FFC01EC5AF3
:10161000FF4F2081422F4057550B6A018B5A9F4F35
:10162000FC018081282F2552330B4901449F9001F2
:10163000459F300D300D1124889CC001899C900D70
:10164000900D1124820F931F0E946909082F609149
:101650007E0570917F0580918005E72C9401A6019D
:10166000F50109950E94CB09462F282F672FCE013F
:101670000E945C072196A9CFCF92DF92EF92FF9252
:101680000F931F93CF93DF937C01C0911B0189E1DE
:10169000C89FC02D112419E11C0FD12E1D3710F049
:1016A0003CE7D32E609181056695809175059091F8
:1016B00076050E94C109C82ED0E0CD1568F081E002
:1016C0001C3708F080E0DF91CF911F910F91FF90C0
:1016D000EF90DF90CF900895FE01E856FD4F808196
:1016E00090911C01892311F1CE01880F991F845B11
:1016F0009E4FFC01EB5AFF4F20812552330B8C5A31
:101700009F4FFC0140814057550B60917E057091C1
:101710007F05809180050C2DF70109950E94CB096A
:10172000462F282F672FCE010E945C072196C5CF38
:10173000DF92EF92FF920F931F93CF93DF937C0181
:10174000C0911B0189E1C89FC02D112419E11C0F14
:10175000012F1D3708F00CE76091810566956695AD
:1017600080917505909176050E94C109D82ED0E030
:10177000C01760F081E01C3708F080E0DF91CF9166
:101780001F910F91FF90EF90DF900895FE01E856B2
:10179000FD4F808190911C01892391F060917E051D
:1017A00070917F05809180052D2D4C2FF7010995B3
:1017B0000E94CB09462F282F672FCE010E945C077D
:1017C0002196D6CF90913F0592FF06C0282F287111
:1017D0002830F9F4877F846093FF06C0282F287192
:1017E0002831F1F4877E84612091400520FF06C0F6
:1017F000382F38713830D9F4877F816021FF06C0D7
:10180000282F28712831D1F4877E816194FD877E4D
:101810000895282F24712430F9F68B7F8860DCCF5F
:10182000282F2471243101F78B7E8861DDCF382F7A
:101830003171313019F78E7F8860E0CF282F217108
:10184000213121F78E7E8861E1CFCF93DF93972FEF
:1018500070E027E0929F600D711D1124FB0134E5BB
:10186000839FE00DF11D1124EE0FFF1FE453FE4F87
:10187000C591D491CE01C238D105B9F1E8F5C13393
:10188000D10509F499C050F5C932D10509F48DC0CC
:10189000CA32D10509F497C0C11542E5D40708F052
:1018A00039C1C11521E5D20708F0AEC1C83ED10546
:1018B00008F020C1C03ED10568F5C83AD10508F04E
:1018C00089C0C53AD10508F070C1C130D10511F108
:1018D000209709F443C02497E8F440C0C533D105EC
:1018E00009F45CC0C933D105B9F620913F052370D6
:1018F00089F080EE90E00EC0C33ED10591F168F40E
:10190000C03ED105F9F0C23ED10531F620913F0528
:1019100022FD20C0DF91CF910895C63ED10561F12F
:10192000C73ED10581F1C43ED10509F0B5CF209164
:10193000400521FFEFCF80913F0584FD0FC087EE6A
:1019400090E0E8CF20913F0520FD8BC1309140050C
:1019500030FFE0CF83EE90E024FFDCCF90E080E02A
:10196000D9CF20913F0522FD7FC13091400530FD48
:10197000C0CF24FFCFCFF2CF20913F0523FFCACFA6
:1019800024FDECCFDCCF20913F0523FD70C13091C9
:10199000400531FFEECF84EE90E0BCCF20913F05B3
:1019A00025FFB8CF89E290E0B5CF20913F0525FF14
:1019B000B1CF85E390E0AECF20913F0526FFAACFBF
:1019C0008AE290E0A7CF20913F0526FFA3CF81E3D5
:1019D00090E0A0CFCF3BD10508F682EE94E4C83A60
:1019E000D10509F497CF89EE94E4C93AD10509F4F9
:1019F00091CF8AEE94E4CA3AD10509F48BCF85EBF6
:101A000094E4CB3AD10509F485CF86EB94E4CC3A43
:101A1000D10509F47FCF83EB94E4CB3BD10509F4E6
:101A200079CF84EB94E4CC3BD10509F473CF87EBF9
:101A300094E4CD3AD10509F46DCF8CEC94E4C03B2D
:101A4000D10509F467CF8DEC94E4CE3AD10509F4C1
:101A500061CF83E895E4CF3AD10509F45BCF8AE8FA
:101A600095E4C13BD10509F455CF82E995E4C23B29
:101A7000D10509F44FCF84E995E4C33BD10509F4BE
:101A800049CF81E296E4C43BD10509F443CF83E218
:101A900096E4C53BD10509F43DCF84E296E4C63B0C
:101AA000D10509F437CF85E296E4C73BD10509F4A7
:101AB00031CF86E296E4C83BD10509F42BCF87E20B
:101AC00096E4C93BD10509F425CF8FE694E4CD3BDC
:101AD000D10509F41FCF80E794E4CE3BD10509F48A
:101AE00019CF80E094E4CA3BD10509F013CF8AE214
:101AF00096E410CFC11530E5D30708F069C0C115D1
:101B000040E4D40708F060C0DA95C115DF4108F45D
:101B100001CF24CFC11536E5D30718F5C11545E52A
:101B2000D40708F087C0C11584E5D80708F07DC048
:101B30009C2F96959695AE0143705527C115D345B8
:101B400008F467C021E030E002C0220F331F4A953D
:101B5000E2F740E2949FC0011124822B932B9A68F4
:101B6000D9CEC1153AE5D30778F4C11549E5D407B4
:101B700008F06AC0C11588E5D80708F4EFCE9C2F9D
:101B80008827806F906AC6CECE019056811590420C
:101B900008F0E4CE8D2F8F710E94E20B90E0982F19
:101BA000882788279F718C2B4DC081E890E4C53A27
:101BB000D10509F4AFCE82E890E4C63AD10509F424
:101BC000A9CE83E890E4A6CECE019F70906AA2CE03
:101BD0009E01E4E036952795EA95E1F723708C2F76
:101BE00086958695837030E2839FC0011124922BE5
:101BF000C37021E030E002C0220F331FCA95E2F724
:101C0000822B932B9C6886CE9C2F8827816F906AAD
:101C100081CE21E030E002C0220F331F4A95E2F767
:101C200040E2949FC0011124EBCF9C2F8827846F42
:101C3000906A70CE8C2F0E94E20B90E0982F88273C
:101C400088279F71906266CE8C2F8F700E94E20B66
:101C500034E0D695C7953A95E1F7CF709C2F9069FF
:101C600059CE89E390E056CE82EE90E053CE86EED8
:101C700090E050CEBF92CF92DF92EF92FF920F93FF
:101C80001F93CF93DF938C01C0901D05D0901E054C
:101C9000E0901F05F0902005809126059091270582
:101CA000A0912805B0912905C82AD92AEA2AFB2A39
:101CB000CFE1D0E0BC2ED701C6010C2E04C0B695F2
:101CC000A795979587950A94D2F780FD0EC0219726
:101CD00088F7B12C8B2DDF91CF911F910F91FF9041
:101CE000EF90DF90CF90BF900895B8018C2F0E94A5
:101CF000250C019761F3EECFCF93DF93EC010E94A7
:101D00003A0EBE01DF91CF910C94250C0E947C0EFF
:101D1000292F2F7092959F7092509E3078F4E92F62
:101D2000F0E0E65DF74D0C941127803F19F020F4A8
:101D3000883E20F481E00895843FE1F380E0089537
:101D4000883EC0F3813FD1F7F5CF822F86958695E7
:101D500086950895CF93DF939C013A9521153F41D5
:101D600068F5EC01CC27D170DC01AA27B270AC0178
:101D7000442754709C012227387094FF11C080E1E1
:101D8000CD2B09F480E0AB2B09F08062452B09F0E4
:101D90008064232B09F08068FB01DF91CF910994C7
:101DA00081E0CD2B09F480E0AB2B09F08260452B5C
:101DB00009F08460232B81F38860EECFDF91CF910F
:101DC0000895CF9384E090E00E948327C82F81E29A
:101DD00090E00E948327982F8C2FCF910895CF9366
:101DE000DF9300D00F92CDB7DEB79C0190916B05C9
:101DF000943019F599833B832A8382E08093E9002C
:101E00008FEF9091E800815095FD06C095ED9A9571
:101E1000F1F700008111F5CF8091E80085FF0DC03A
:101E200050E040E063E070E0CE0101960E94420382
:101E30008091E8008E778093E8000F900F900F90CC
:101E4000DF91CF910895CF93DF9300D00F92CDB75C
:101E5000DEB720916B05243031F523E029838058CB
:101E600091099B838A8382E08093E9008FEF9091B0
:101E7000E800815095FD06C095ED9A95F1F70000B8
:101E80008111F5CF8091E80085FF0DC050E040E062
:101E900063E070E0CE0101960E9442038091E80069
:101EA0008E778093E8000F900F900F90DF91CF9185
:101EB0000895CF93DF93EC0180916B05843039F561
:101EC00081E08093E9008FEF9091E800815095FDCB
:101ED00006C095ED9A95F1F700008111F5CF80913C
:101EE000E80085FF14C050E040E068E070E0CE01FB
:101EF0000E9442038091E8008E778093E80088E09A
:101F0000FE01A1E6B5E001900D928A95E1F7DF911F
:101F1000CF9108950F931F93CF93DF93C62FD42FA4
:101F2000022FFC0182818823A1F06093AC040E94FF
:101F3000AA049093A5048093A404C77081E001C013
:101F4000880FCA95EAF7DF91CF911F910F910C94FA
:101F500081051091AC04161338C08091A4049091AF
:101F6000A5040E9480048639910578F5C0E2CD0F62
:101F70001D17B9F080E2810F883040F4177081E0BE
:101F800001C0880F1A95EAF70E947605C83048F418
:101F900081E09D2F977001C0880F9A95EAF70E9403
:101FA0008105802F0E946E06802F0E943506C83062
:101FB00098F4D77081E001C0880FDA95EAF7DF91D5
:101FC000CF911F910F910C947605C77081E001C0ED
:101FD000880FCA95EAF7F3CFDF91CF911F910F9148
:101FE0000895279A35B13F7725B120684FB7F89407
:101FF0008DE293E0FC015191CF0168E025B900002A
:1020000000C057FF35B9550F000000C000C000C028
:1020100035B900C06A9591F7F4E0813A9F0751F70E
:102020004FBF87EC90E00197F1F700C000000895E2
:1020300080912C03811111C08091D8008061809320
:10204000D8008AE18A95F1F700C09091D900892FD4
:10205000817090FF82E080932C0381E090912C03AB
:10206000913009F080E00895CF92DF92EF92FF92D5
:102070001F93CF93DF93D82FC62F0E941810882369
:1020800009F466C080911D0590911E05A0911F0561
:10209000B0912005AD016627772710E14115510564
:1020A0006105710519F4AC01BD0110E0C52ED62EF5
:1020B000E72EFF24C114D104E104F10419F0185FE4
:1020C000B701A6016A017B0124E0F694E794D79456
:1020D000C7942A95D1F7C114D104E104F10419F091
:1020E0001C5FB701A6016A017B01F2E0F694E79458
:1020F000D794C794FA95D1F7C114D104E104F1043F
:1021000019F01E5FB701A60176956795579547951B
:10211000452B462B472B09F01F5F2D2F30E06C2FEE
:1021200070E0E12FF0E0EE0FFF1FE20FF31FEE0F64
:10213000FF1FE60FF71FEE0FFF1FE455FF4FC5917E
:10214000D49141E050E0C130D10579F5111108C0BA
:10215000DF91CF911F91FF90EF90DF90CF90089586
:102160001150E12FF0E06A01012E02C0CC0CDD1C01
:102170000A94E2F70D2C000CEE08FF08C822D922C1
:10218000EA22FB22CD28CE28CF2801F3EE0FFF1F35
:10219000E20FF31FEE0FFF1FE60FF71FEE0FFF1FFB
:1021A000E455FF4FC591D491CECF7E0180EEE81A61
:1021B000F10888E0E816F10420F06CE675E020975D
:1021C00011F461E875E0CE010E94AA0E8C2F0E94E6
:1021D0006E068C2F0E94350688E0E816F10420F088
:1021E00061E675E0209711F466E775E0CE01DF91B6
:1021F000CF911F91FF90EF90DF90CF900C94AA0E9B
:10220000CF93E0913005EE0FEE0FE093300549B12A
:1022100042FB882780F949B146FB222720F946FF77
:1022200002C022E030E0822BE82BE0933005C09121
:102230002F05EF70F0E0E75DFE4F80819091A304E1
:10224000890F8093A30484306CF0EC2F0C2E000CCB
:10225000FF0BEF55FB4F80818F5F808361E08C2FF8
:102260000E9434108091A3048D3F6CF4EC2F0C2E4F
:10227000000CFF0BEF55FB4F80818150808360E0A5
:102280008C2F0E9434108091A304837887FF03C0B1
:1022900081508C6F8F5F8093A304CF9108956CEE73
:1022A0007EEF90E080E00E94BF2760E082E090E057
:1022B0000E94A12760E083E090E00E94A127109295
:1022C000260510922705109228051092290560E036
:1022D00084E090E00E94A12760E081E290E00E940B
:1022E000A12760E085E090E00E94A12760E086E001
:1022F00090E00E94A1276FEF87E090E00E94A12765
:1023000040E050E0BA0188E090E00E94B32760E02E
:102310008DE090E00E94A12740E050E0BA0188E102
:1023200090E00E94B32760E087E190E00E94A1273F
:1023300040E050E0BA018CE190E00E94B32760E0F9
:1023400080E290E00E94A12740E050E0BA018FE0D7
:1023500090E00E94B32740E050E0BA0183E190E0B2
:102360000C94B32710922405E6E1F3E086E0DF0148
:102370001D928A95E9F70C94B7051F93CF93DF93CD
:10238000CDB7DEB7AA970FB6F894DEBF0FBECDBFAC
:102390008DE695E02091F100FC012193CF01F5E05D
:1023A00085379F07B9F780916E05833009F46FC0B8
:1023B000B8F4813009F446C0823009F4B0C080918D
:1023C000E80083FF87C280916D0590916E059A3079
:1023D00008F080C2E92FF0E0E85CF74D0C9411277B
:1023E0008A3009F48BC08B3009F46EC0893039F71C
:1023F00080916D05813219F7809171059091720578
:102400000297E8F68091E800877F8093E80080914A
:10241000E80082FF37C09091F3008091F2000297AC
:1024200029F48091F1008B7F813021F48091F100BB
:10243000809360058091E8008B778093E8000E948C
:102440006C03BDCF80916D05813A09F0B8CF8091C2
:10245000E800877F8093E800809171059091720574
:10246000892B61F468E081E695E070E00E941E042B
:102470008091E8008B778093E800A1CF60E090E046
:1024800080E0F3CF80916B058111C1CF98CF80910F
:102490006D05813A09F093CF809171059091720595
:1024A000892B09F08CCF8091E800877F8093E8002A
:1024B0008091E80080FFFCCF80911A018093F100A9
:1024C0008091E8008E77B9CF80916D05813209F057
:1024D00076CF8091710590917205892B09F06FCFAD
:1024E0008091E800877F8093E8000E946C038091D0
:1024F0006F0580931A010E94B21161CF80916D0522
:10250000813209F05CCF8091E800877F8093E800FA
:102510000E946C038091700580935F0550CF80917D
:102520006D05813A09F04BCF8091E800877F809359
:10253000E8008091E80080FFFCCF80915F05BECF6E
:10254000803899F0823809F0C5C1809171058F708B
:10255000873008F0BFC18093E9008091EB0085FBD4
:10256000882780F91092E90006C080916905909152
:102570006A05911182609091E800977F9093E8003E
:102580008093F1001092F1008091E8008E779EC157
:10259000882309F48CC1823009F09CC180916F05B9
:1025A00081118FC1809171058F702FEF280F263018
:1025B00008F090C18093E9002091EB0020FF81C1D9
:1025C000933031F48091EB0080628093EB0079C10D
:1025D0009091EB0090619093EB0021E030E001C01E
:1025E000220F8A95EAF72093EA001092EA00809180
:1025F000EB008860EACF81116DC110916F051F77E4
:102600008091E3008078812B8093E3008091E80043
:10261000877F8093E8000E946C038091E80080FF30
:10262000FCCF8091E30080688093E30082E0111189
:1026300083E080936B054EC18058823008F04AC118
:1026400080916F05909170058C3D23E09207A1F574
:1026500083E08A838AE289834FB7F894DE01139678
:1026600020E03EE051E2E32FF0E050935700E49188
:1026700020FF03C0E295EF703F5FEF708E2F90E078
:10268000EA30C0F0C7968D939D932F5F243159F7A0
:102690004FBF8091E800877F8093E8006AE270E096
:1026A000CE0101960E941E048091E8008B778093F2
:1026B000E80010C1C096E7CF4091710550917205B6
:1026C000292F33272330310509F445C078F521300F
:1026D000310509F47BC08BE390E0E2EEF4E02230B8
:1026E000310509F0F7C02091E800277F2093E8002A
:1026F00020917305309174058217930708F49C01AB
:1027000040E02115310509F070C041116EC0809183
:10271000E80082FDC9CF80916B05882329F28530BE
:1027200019F28091E80083FFF2CFBECF213231054C
:1027300009F440C02232310509F0CCC041155105E1
:1027400009F44EC04130510509F0C4C086E390E061
:10275000ECE6F4E0C8CF992781309105D9F00097D5
:1027600071F082309105F1F0039709F0B3C0EFE208
:10277000F5E0E4918E2F90E0EFE2F5E007C0EDE4A4
:10278000F5E0E4918E2F90E0EDE4F5E0009709F498
:10279000A1C0A9CFEFE3F5E0E4918E2F90E0EFE345
:1027A000F5E0F4CFE5E3F5E0E4918E2F90E0E5E38A
:1027B000F5E0ECCF4115510571F04130510509F0BC
:1027C00089C089E090E0EDE0F5E08DCF82E190E016
:1027D000EDE1F5E088CF89E090E0E4EFF4E083CF2D
:1027E00080E490E0E2EAF4E07ECF80916B058823FC
:1027F00009F45ACF853009F457CF8091E80083FD62
:1028000053CF8091E80082FD82CF8091E80080FF65
:1028100078CF9091F3008091F2002115310519F0E5
:102820008830910550F041E0089709F040E0809130
:10283000E8008E778093E80064CF44914093F100E4
:102840003196215031090196E8CF803809F042C015
:102850008091E800877F8093E80080916C058093E9
:10286000F10092CE811136C010916F05123090F5B3
:102870008091E800877F8093E80010936C050E94A8
:102880006C03112311F084E005C08091E30087FD03
:10289000FACF81E080936B0542E061EC81E00E9419
:1028A0008B0342E261EC82E00E948B0313C08091B3
:1028B0006F05813079F481E0933009F080E08093F6
:1028C0006A051092E9008091E800877F8093E80014
:1028D0000E946C038091E80083FF0AC08091E800A9
:1028E000877F8093E8008091EB0080628093EB000B
:1028F000AA960FB6F894DEBF0FBECDBFDF91CF9181
:102900001F9108950E94B2112FEF84E39CE02150A3
:1029100080409040E1F700C0000081E08093E0003B
:1029200080E28093D8001092C9008FE19EE4019765
:10293000F1F700C0000087E090EBDC018093840594
:1029400090938505A0938605B093870588E19CE068
:102950000FB6F894A895809360000FBE9093600026
:10296000FFCF1F93CF93DF93EC01FC01E856FD4F9F
:1029700080816823A1F00E946327182F0E9463279B
:10298000612F782F809180050E94CB09462F282F38
:10299000672FCE01DF91CF911F910C945C07DF91DF
:1029A000CF911F910895DF92EF92FF920F931F93A3
:1029B000CF93DF938C01FC01E856FD4F80816823A3
:1029C00081F1D0907F05D0918005C0917E05EC2EDD
:1029D000F12C0E946327282FC7018C549F4F68E673
:1029E00071E00E94FD268E199F0997FD039695952B
:1029F00087959595879523706C2F289F600D1124DE
:102A00007D2D8D2F0E94CB09462F282F672FC801BF
:102A1000DF91CF911F910F91FF90EF90DF900C9479
:102A20005C07DF91CF911F910F91FF90EF90DF90A6
:102A3000089545E050E06CE170E08DE795E00C947E
:102A4000912780917D05982F969596959F5F9F730E
:102A50008370983148F4990F990F892B80937D05E5
:102A6000109206010C9419158460F8CF80917D05B1
:102A7000845080937D05982F9C7F21F483708C6512
:102A800080937D05109206010C941915EDE7F5E091
:102A90008181885F81830C941915EDE7F5E08181D0
:102AA000885081830C941915EDE7F5E0228130E11F
:102AB000230F08F42FEF22830C941915EDE7F5E0AE
:102AC000228130E1231B08F420E022830C941915A5
:102AD0002091800530E1230F08F42FEF293720F4EF
:102AE000209380050C94191588E780938005FACF10
:102AF000EDE7F5E0238130E1231B08F420E0238398
:102B00000C941915EDE7F5E0248130E1230F08F46A
:102B10002FEF24830C941915EDE7F5E0248130E1C3
:102B2000231B08F420E024830C94191590917D0553
:102B300096959695981720F0961710F40C942115F9
:102B4000982F990F990F80917D058370892B809321
:102B50007D05109206010C941915EDE7F5E081E36F
:102B6000808380911E0190911F01A091200181839B
:102B70009283A3838FE784830C9419154F925F92FD
:102B80006F927F928F929F92AF92BF92CF92DF927D
:102B9000EF92FF920F931F93CF93DF9300D000D05B
:102BA0000F92CDB7DEB77C01FC0183819481892B24
:102BB00039F01081D180812F8D218F3F09F0DEC542
:102BC0000F900F900F900F900F90DF91CF911F916A
:102BD0000F91FF90EF90DF90CF90BF90AF909F90BC
:102BE0008F907F906F905F904F9008950E943A0E63
:102BF000082F682F89819A810E942B05E12FF0E030
:102C000027E0D29EE00DF11D112434E5039FE00D75
:102C1000F11D1124EE0FFF1FE453FE4F0591149197
:102C2000023C8CE5180709F474C0B0F50115ECE519
:102C30001E0709F457C0033FFCE51F0709F41CC138
:102C400008F0ABC0083D3CE5130709F411C1093D8C
:102C50008CE5180709F420C1073D9CE5190709F028
:102C6000A8C026E241EE61EEC7010F900F900F90D1
:102C70000F900F90DF91CF911F910F91FF90EF90E8
:102C8000DF90CF90BF90AF909F908F907F906F908C
:102C90005F904F900C948A0F0830FDE51F0731F0CC
:102CA00009302DE5120709F48BCFC5CFF7018281DA
:102CB000882309F485CF0F900F900F900F900F90FD
:102CC000DF91CF911F910F91FF90EF90DF90CF9008
:102CD000BF90AF909F908F907F906F905F904F903C
:102CE0000C94AD15F7018281882339F00E94AA0463
:102CF0009093AB048093AA0463CF8091AA0490912F
:102D0000AB040E948004843F914008F459CF0E9494
:102D10008214F7018281882309F452CF90911C011B
:102D2000953071F19F3F79F080917D05923051F59A
:102D300010921C01982F937011F0109206018C7F55
:102D400080937D053DCF85E080931C0140E060E0ED
:102D500080E00F900F900F900F900F90DF91CF9128
:102D60001F910F91FF90EF90DF90CF90BF90AF90A9
:102D70009F908F907F906F905F904F900C945A0728
:102D800082E0E2CF9FEF90931C01982F937011F493
:102D9000109206018C7F8160D3CF053FECE51E07C2
:102DA00009F472C008F46CC0063F2CE5120709F460
:102DB0006FC0F7019281992309F4F1C41092AC0419
:102DC0000230FCE51F0708F4E6C106312CE51207C6
:102DD00038F098012A5F3C452930310508F0DBC105
:102DE0000E94E10E9093400580933F0500313CE541
:102DF000130709F401C108F08FC008309CE51907DA
:102E000009F4F0C008F05EC00430FCE51F0709F4C7
:102E1000E1C008F044C002303CE5130709F4D0C01B
:102E200003301C4509F4D2C060913F051091400564
:102E300084E090E00E94A127612F81E290E00E944F
:102E4000A1270F900F900F900F900F90DF91CF91CF
:102E50001F910F91FF90EF90DF90CF90BF90AF90B8
:102E60009F908F907F906F905F904F900C94B211D5
:102E700027E245EE65EEF8CE26E241EE60EEF4CEB6
:102E800027E245EE64EEF0CE26E241EE62EEECCEB5
:102E900027E245EE66EEE8CE28E241E0EBCF8091F6
:102EA0003F05806106309CE5190709F48CC08091CC
:102EB0003F05886007301C4508F485C080913F05B8
:102EC000806281C080913F058D7F0C30FCE51F073B
:102ED00009F479C070F480913F058C600A303CE5BC
:102EE000130709F470C008F481C080913F058E7FFC
:102EF0006AC080913F05877F0E309CE5190709F471
:102F000062C080913F058B7F0F301C4508F45BC089
:102F100080913F058F7E57C00B3FFCE51F0709F4EA
:102F20005DC030F503313CE5130709F46DC078F45A
:102F300001319CE5190709F463C002311C4509F011
:102F400073CF0E94B21180913F058F773CC005314D
:102F5000FCE51F0709F460C008F474C080914005C7
:102F600081600A3F1C4509F05FCF809340055CCF2C
:102F70000F3F8CE5180709F44BC088F48091400599
:102F80008D7F0D3FECE51E0781F3809140058E7F1C
:102F90000E3F1C4550F3809140058360E6CF013021
:102FA0002DE5120709F457C008F442C060E0023072
:102FB0001D4509F039CF8EE090E00E94A12734CF63
:102FC00080913F05816080933F052ECF80913F0522
:102FD0008260F9CF80913F058460F5CF80914005F4
:102FE0008260C3CF80913F058064EDCF0E94B21113
:102FF00080913F058068E7CF80913F058F7DE3CFCB
:1030000080913F058F7BDFCF80913F05837FDBCFB2
:10301000809140058C7FA9CF80913F0582FB992745
:1030200090F921E0922790FB82F990FB83F9CBCFB6
:1030300080914005982F909591708E7F892B90FB01
:1030400081F993CF0E94B21190913F05892F97FB90
:1030500087F98058B8CF61E0AECF80917D0591E0CF
:10306000892780937D05109206010F900F900F9095
:103070000F900F90DF91CF911F910F91FF90EF90E4
:10308000DF90CF90BF90AF909F908F907F906F9088
:103090005F904F900C94191546E355E161E275E19C
:1030A0000F900F900F900F900F90DF91CF911F9185
:1030B0000F91FF90EF90DF90CF90BF90AF909F90D7
:1030C0008F907F906F905F904F900C943F0741E2FC
:1030D00055E166E375E1E4CF4DE455E166E475E161
:1030E000DFCF46E455E16DE475E1DACF4EE555E119
:1030F00064E575E1D5CF44E555E16EE575E1D0CFE6
:1031000048E755E168E675E1CBCF48E655E168E769
:1031100075E1C6CF4CE855E162E875E1C1CF42E800
:1031200055E16CE875E1BCCF80917D0583708460CA
:1031300098CF65E082E00F900F900F900F900F9066
:10314000DF91CF911F910F91FF90EF90DF90CF9083
:10315000BF90AF909F908F907F906F905F904F90B7
:103160000C94961568E086E0E6CF6EE089E0E3CF48
:1031700064E18FE0E0CF67E185E1DDCF80917D05FF
:10318000837080666ECF62E289E1D5CF80917D0544
:1031900083708C6866CF0115ECE51E0709F4B7CD86
:1031A0000E3DFCE51F0769F106311C4509F055C0CD
:1031B000992309F43DC0809124058A7A91E009F4AD
:1031C00090E09093AD0469E2811165E384E193E0BE
:1031D0000E94B6040F900F900F900F900F90DF9108
:1031E000CF911F910F91FF90EF90DF90CF90BF9004
:1031F000AF909F908F907F906F905F904F900C94C6
:10320000D6040F900F900F900F900F90DF91CF91F9
:103210001F910F91FF90EF90DF90CF90BF90AF90F4
:103220009F908F907F906F905F904F900C944F1174
:103230008091AD0481110FC089E2E6E1F3E02CE159
:1032400033E09191891303C0DF0111971C922E176F
:103250003F07B9F7BFCF85E3F0CFF70100811181B8
:103260009923C9F1C8010E943A0ED82E682FC801CF
:103270000E942B05B8018D2D0E94250C8C01882EF3
:10328000F701A580A2943FE0A322D280D110109232
:10329000230580912105877079F0DD2069F080E2B7
:1032A000800F883048F082E00E94F205809121056D
:1032B0008770CC24C3948111C12CB12EB2942FE01D
:1032C000B222FBE0FB1508F440C0EB2DF0E0EE5B12
:1032D000F74D0C941127C8010E940305D82ECACFC0
:1032E000212F2F70A22E107F19F0A29490EFA92207
:1032F000DD20C9F0AA2069F080E2800F883010F04C
:1033000081100BC080912405A82AA09224050E9458
:10331000D604802F0E946E0618C080912305A82A2B
:10332000A0922305F4CF802F0E943506AA2069F0D1
:10333000A094005E083010F081103BC080912405FD
:10334000A822A09224050E94D604EB2DE850FF0B82
:10335000349710F40E943307CC2009F431CC8091CB
:10336000210580FD2DCCF7011282859585958595E7
:103370000E940A06C7010E94BE158091210585950D
:10338000859585950F900F900F900F900F90DF917E
:10339000CF911F910F91FF90EF90DF90CF90BF9052
:1033A000AF909F908F907F906F905F904F900C9414
:1033B000CF0580912305A822A0922305C4CF312FE9
:1033C0003F70932E107F103219F0929480EF982264
:1033D000882071F091E0891661F1DD20B9F1AA2011
:1033E00071F1F701858180FF94CF8F70858327C0AD
:1033F000DD2091F090912505892D892BA11003C026
:103400000E948105A2CFE1E0AE12FACF891709F43C
:103410009CCF8093250599CFA11006C00E94D004AF
:10342000892D0E94760591CFF1E0AF1609F48DCF7A
:10343000F5CFDD2031F025E02A1508F486CF892D5F
:10344000DFCF34E03A1508F480CFEACFAA2041F369
:10345000093349F4FFEF27EE33E0F15020403040CC
:10346000E1F700C00000802F0E9435066ECF812F4B
:1034700086958695837061F0813009F066CFC8012A
:103480009370D11002C090E080E00E948B055DCF68
:10349000C8019370D11002C090E080E00E94A105A5
:1034A00054CF812F837009F066C0D1104ECF802F8A
:1034B000829586958770880F880F602F6F70462ED3
:1034C000512C712C612C082E04C0440C551C661C18
:1034D000771C0A94D2F740E050E0BA0104FF0FC015
:1034E0004FE050E060E070E004C0440F551F661FDD
:1034F000771F8A95D2F74095509560957095812FEA
:10350000869586958370823019F1D8F4009126054E
:10351000109127052091280530912905813069F007
:103520004429552966297729CB01BA0160237123E3
:10353000822393230E942B0608CF402A512A622A15
:10354000732ACB01BA016429752986299729F2CFFC
:1035500044295529662977290091260510912705C8
:103560002091280530912905CB01BA0160277127E8
:1035700082279327DFCF8695DD2011F0812F817080
:10358000882309F4E2CE802F829586958770880F74
:10359000880F602F6F70462E512C712C612C082ED5
:1035A00004C0440C551C661C771C0A94D2F740E0FA
:1035B00050E0BA0104FF0FC04FE050E060E070E05F
:1035C00004C0440F551F661F771F8A95D2F7409598
:1035D000509560957095812F869586958370823081
:1035E00019F1D8F400911D0510911E0520911F05B9
:1035F00030912005813069F04429552966297729C1
:10360000CB01BA0160237123822393230E94C50555
:103610009CCE402A512A622A732ACB01BA0164291E
:10362000752986299729F2CF4429552966297729B2
:1036300000911D0510911E0520911F053091200558
:10364000CB01BA016027712782279327DFCF1F7034
:10365000DD2029F0812F0E940A06802FD1CE802FF5
:103660000E947605812F0E94CF056FCE802F92EFAA
:10367000891609F450C0981578F0E0EF8E1619F10C
:10368000F1EF8F1609F43FC0DD2009F467C0A110E7
:1036900040CE812F8F713CC023EF821609F440C0C9
:1036A00034EF8312F1CFDD2009F44DC01F71812F5B
:1036B0000E940A06E8E01E9FC001112483608093E7
:1036C0002105812F25C0DD20C9F084E08A1508F48A
:1036D0003CCE1F7161E070E080E090E004C0660FB6
:1036E000771F881F991F1A95D2F700911D05109119
:1036F0001E0520911F0530912005A4CF95E09A1555
:1037000008F423CEE6CF812F8F71DD2009F4ABCFF3
:103710000E940A061ACE812F8F71DD20C9F3A3CF34
:1037200060E070E0CB01DD2009F470CF1F7161E033
:1037300070E080E090E004C0660F771F881F991F3B
:103740001A95D2F763CF81E00E94F205F1E0FA15F5
:1037500008F0FBCD82E00E94F205F7CDAA2059F0D7
:10376000893309F080CE2FEF37EE83E021503040CF
:103770008040E1F776CE812F8F7175CF85E0DE0135
:10378000119601900D928A95E1F7F70122818981C6
:103790009A8121112BCA0E940305082F2FCA8091FC
:1037A00024058272F801E25CFC45E431F10508F081
:1037B000FBCCE25BF74D0C9411271F93CF93DF9363
:1037C0008091B304807FC1F48091B0048823A1F07C
:1037D0008091E504C091B4046091AE047091AF048F
:1037E0004091B1045091B204D62FD723DA01A095AD
:1037F000B09516E0C81304C0DF91CF911F910895D2
:1038000090E04115510511F0DF3F31F401968770CA
:10381000F1CF2A0F3B1F17C0189FF001199FF00D21
:103820001124EB54FB4F21812713F0CF2081261365
:10383000EDCF22812111EACF23813481241735076E
:1038400040F3241B350B2639310500F72091B304D2
:103850002F7020612093B30426E0289FF001299F58
:10386000F00D1124E654FB4F80818F7080618083BE
:103870008EEA94E00E94BE15DF91CF911F910C94C7
:103880005705BF92CF92DF92EF92FF920F931F9353
:10389000CF93DF93CDB7DEB761970FB6F894DEBF55
:1038A0000FBECDBF8C0185E0F801DE011D960190B1
:1038B0000D928A95E1F7D8012C9111963C911197C0
:1038C0001296EC9012978091B1049091B2040097F7
:1038D00009F463C14091AE045091AF04642F652395
:1038E0006F3F09F45AC11396CD90DC90B090B004AC
:1038F000BB2009F413C1C816D906C0F1F601E81BB4
:10390000F90BCF01FF24F3948639910508F0F12CCF
:103910008091B304982F907FFF2009F4C1C09111CA
:103920007DC0FE2C531327C0421325C0E11023C0D5
:103930008F7080618093B3048EEA94E00E94BE157C
:103940008091B304D80115968C938F2D61960FB694
:10395000F894DEBF0FBECDBFDF91CF911F910F91C5
:10396000FF90EF90DF90CF90BF9008958095909555
:103970008C0D9D1DC7CFCD2829F0822F83238F3F2B
:1039800009F029C180E0B82FB170DB2E80FF3CC068
:103990008091E5044091B40456E0841315C02D874E
:1039A0003E878D859E850E947C0E292F22952F7043
:1039B0002230F0F0243018F59F70F1F0F801958175
:1039C000907FD1F4D12C1EC090E0589FF001599FF8
:1039D000F00D1124EB54FB4F6181361306C060815A
:1039E000261303C06281E6120FC001968770D5CFFF
:1039F0009F7011F0882331F3805E883018F3C8017E
:103A00000E94BE15FD2CA1CFEE2009F49ECF80911F
:103A1000B30481608093B304F12C97CF531313C088
:103A2000421311C0E1100FC0D80115968C93C80144
:103A30000E94BE1586E0F801AEEAB4E001900D9256
:103A40008A95E1F782CF2D873E878D859E850E94DE
:103A5000860E882309F1EE20F9F08091B3048032BC
:103A600070F02091AE043091AF0438872F8319860F
:103A7000DB86CA868C87CE0107960E94BE1586E03B
:103A8000F801AEEAB4E001900D928A95E1F70E9448
:103A9000DD1BFF24F39459CFC8010E94BE15F9CF56
:103AA00091110CC08EEA94E00E94BE1586E0EEEA09
:103AB000F4E0DF011D928A95E9F747CF531312C056
:103AC000421310C0E1100EC0F8018583C8010E94A6
:103AD000BE15EEEAF4E086E0DF011D928A95E9F773
:103AE000FB2C33CF2D873E878D859E850E94860EC9
:103AF000882391F2EE2081F28091B304803208F4A1
:103B0000BECF2091AE043091AF043A8329831B824B
:103B1000DD82CC828E83CE010196AFCFC816D90646
:103B200040F0C81AD90AB6E9CB16D10448F0F12CF6
:103B3000BDCF809590958C0D9D1D86399105B8F768
:103B4000FE2CEE2009F4A8CF531316C0421314C064
:103B50008091B30480FD6ECF982F907F09F46ACFD7
:103B6000F8018583903F09F462CF982F907F905F92
:103B70008F70892B85835BCF2D873E878D859E85B2
:103B80000E94860E81117BCF8091B3048160809367
:103B9000B304C8010E94BE15D8CEEE2009F47CCF34
:103BA0002D873E878D859E850E94860EF82E882360
:103BB00009F472CF86E0F801AEEAB4E001900D920C
:103BC0008A95E1F78091AE049091AF040E947C0E3B
:103BD0000E94DD1BBACE81E08E25D5CE1F93CF93F8
:103BE000DF93CDB7DEB767970FB6F894DEBF0FBE91
:103BF000CDBF4B8B5C8B6D8B7E8B8F8B1A8A198A1A
:103C000085E0FE017396DE011D9601900D928A9566
:103C1000E1F786E0FE013D96DE01179601900D92D8
:103C20008A95E1F7CE0107960E94411C811112C0CE
:103C300086E0FE013796DE01119601900D928A957D
:103C4000E1F78A859B85892B29F08F8198858923C7
:103C50008F3FB1F516E08091E5049091B40489138B
:103C60001DC067960FB6F894DEBF0FBECDBFDF91C3
:103C7000CF911F91089596E0929FD001939FB00D30
:103C80001124AB54BB4FFE01319601900D929A95D1
:103C9000E1F78093B4040E945705DCCF819FC001F7
:103CA00011248B549B4F0E94411C8823D1F2809198
:103CB000E50490E00196877099278093E504CBCFC7
:103CC0002091B40430E0C901019687709927409192
:103CD000E5044817190679F60E94B2111092B4044F
:103CE0001092E50486E0EEEAF4E0DF011D928A9589
:103CF000E9F7B0CF6F927F928F929F92AF92BF926F
:103D0000CF92DF92EF92FF920F931F93CF93DF93A7
:103D100001E315E069E371E0D801612CEE24E3943E
:103D2000F12C8C901D92EB018991BE01E82FE29558
:103D3000EF70F0E091A18F70570101C0AA0C8A9535
:103D4000EAF7892F8A2981A382A19A2C909489214C
:103D500082A3D0EADA95F1F785E4C82E81E0D82E67
:103D600090E080E09D0121503109E60179906E01DB
:103D7000472D42954F7050E0EA0148A150E0D72D01
:103D8000DF7002C055954795DA95E2F740FD43C0D4
:103D9000A701082E01C0440F0A94EAF7E9015881EF
:103DA000452B4883019687309105F9F681A1982229
:103DB00091A282A1A82AA2A281E09881981101C0B3
:103DC00080E0682AD5E0A733BD0709F0AACFD091DB
:103DD0003E05662011F181E080931F030E94AA0432
:103DE00090931E0380931D0380911D0390911E03E9
:103DF0000E9480040697A8F0ED2FF0E0EC5BFA4FEC
:103E0000D8018D918D018193B5E007331B07C1F770
:103E100010921F0306C040E0C1CF80911F038111A3
:103E2000E3CF0E941810882309F432C3D0913D05D6
:103E30000E949C26009709F487C080912B038F5F16
:103E400080932B03863008F0B8C040912003509136
:103E5000210360912203709123032FB7F89480917E
:103E60002A0590912B05A0912C05B0912D052FBF0F
:103E700084179507A607B70708F4ACC0841B950BF9
:103E8000A60BB70B4FB7F89400912A0510912B059C
:103E900020912C0530912D054FBF009320031093E6
:103EA00021032093220330932303409179055091FD
:103EB0007A0560917B0570917C054F3FDFEF5D07D0
:103EC0006D077D07C9F0AA27BB276C017D01C0944F
:103ED000D094E094F094C416D506E606F70608F0F0
:103EE0007DC08FEF9FEFDC018093790590937A0579
:103EF000A0937B05B0937C0580917D05D82FD3706E
:103F000019F0D82FD695D69590910601913009F4E5
:103F100078C0992309F467C0923009F489C29330BC
:103F200009F48EC20E940011862DDF91CF911F915E
:103F30000F91FF90EF90DF90CF90BF90AF909F9048
:103F40008F907F906F900895ED2FF0E0EC5BFA4F2B
:103F5000DC01AC5DBC4F2C9121930196863091051C
:103F6000B9F700912E05802F90E0EC01CF55DB4F83
:103F70007E0110912A038881181BD12F09C0D150CE
:103F8000F70180818F5F808361E0802F0E94341071
:103F90001D16ACF3812F17FD80E0181B111103C013
:103FA00010922B0352CF1F5FD7018C9181508C93BD
:103FB00060E0802F0E943410F1CFE0913D05F0E0E9
:103FC000EC5BFA4F90E080E011920196863091050B
:103FD000D9F73BCF0197A109B10950CF840F951FA5
:103FE000A61FB71F81CF10921B0100937505109378
:103FF0007605209377053093780581E0809306015C
:1040000091CF9091050111E0D91309C083702091DF
:10401000040130E011E08217130609F410E011707A
:1040200010931D01D83140F4ED2FF0E0EE59F74D1B
:104030000C941127111102C010E016C000911B0151
:1040400089E1089F002D112419E1F12EF00EEF2CCB
:10405000ECE7EF1510F4CCE7EC2E10E00E15B0F005
:1040600011E0FBE7FF1540F380911B018F5F809308
:104070001B01111157CF82E08093060180911D0131
:10408000811150CFD1114ECF83E0B8CF20E040E076
:1040900060E0C8010E945C070F5F1F4FDFCF0091F7
:1040A0001B0189E1089F002D1124B9E1FB2EF00EC0
:1040B000EF2C2CE72F1510F4ACE7EA2E60917E056B
:1040C00070917F05809180050E94CB09D62EC72E66
:1040D000B82E10E00E1528F011E03BE73F1520F652
:1040E000ABCFF801E856FD4F808190911C018923E8
:1040F00031F02B2D4D2D6C2DC8010E945C070F5FF8
:104100001F4FE8CF00911B0189E1089F002D11246A
:10411000F9E1FF2EF00EEF2C8CE78F1510F4ECE791
:10412000EE2EC0907F05D090800510917E05612F06
:104130007C2D8D2D0E94CB09B62EA72E982E609136
:104140008105610F7C2D8D2D0E94CB09D62EC72EA7
:10415000882E10E00E1530F011E09BE79F1508F057
:1041600083CF6ACFF801E856FD4F908180911C0102
:10417000892359F0282D4D2D6C2D90FD03C0292D3C
:104180004B2D6A2DC8010E945C070F5F1F4FE2CFC5
:1041900000911B0189E1089F002D112479E1F72E80
:1041A000F00EDF2CACE7AF1510F46CE7D62EC09004
:1041B0007F05B09080052091810550E4E52E3E2DCD
:1041C000329F312D1124E32E10E00D1530F011E057
:1041D0008BE78F1508F048CF2FCFF801E856FD4F39
:1041E000808190911C018923B9F0F801EE0FFF1F27
:1041F000EF55FE4F808182958F7060917E058E9D78
:10420000600D11247C2D8B2D0E94CB09462F282F69
:10421000672FC8010E945C070F5F1F4FD6CF109118
:104220001B0189E1189F102D112439E1F32EF10EA5
:10423000EF2C9CE79F1510F42CE7E22ED0907E0522
:1042400000917F05C0908005609181056695669517
:10425000669580917505909176050E94C1090E942E
:104260004A09805887FD8195880F282F3C2D239F70
:10427000212D1124822F6D2D702F0E94CB09D62E57
:10428000C72EB82E012F10E00E1508F0A0CFF801B0
:10429000E856FD4F808190911C01892331F02B2D30
:1042A0004D2D6C2DC8010E945C070F5F1F4FECCF96
:1042B00085E598E00E94980B182FD6CE8BE298E007
:1042C000F9CF8CE299E00E943C0BF6CF8DE099E0AB
:1042D000FACF82EF98E00E94BF0AEECF86ED98E019
:1042E000FACF89E298E0E6CF80E298E0E3CF87E179
:1042F00098E0E0CF8EEF97E0DDCF80EF97E0EBCF57
:1043000089E999E0E0CF85EC98E0DDCF81EB98E09A
:10431000E2CF83EC97E00E945D0ACECF85E997E07B
:10432000FACF8EE597E0F7CF11111EC0609181059D
:1043300020E1620F08F46FEF80917505909176058A
:104340000E94C1096AE070E00E94E926892B09F009
:1043500073CE0E9463276CE770E00E94FD26609197
:104360001C010E94D31480CE00911B0189E1089F9B
:10437000002D112499E1D92ED00E8D2D9CE79D158D
:1043800008F48CE710E0E82EF12C0E151F0534F030
:1043900011E0ABE7AD1508F067CE4ECE60911C0181
:1043A000C8010E94D3140F5F1F4FEFCF11111EC021
:1043B0006091810520E1620F08F46FEF809175052F
:1043C000909176050E94C10965E070E00E94E9269F
:1043D000892B09F031CE0E9463276CE770E00E94C0
:1043E000FD2660911C010E94B1143ECE00911B017C
:1043F00089E1089F002D112489E1D82ED00E8D2D42
:10440000BCE7BD1508F48CE710E0E82EF12C0E1582
:104410001F0534F011E0CBE7CD1508F025CE0CCE0A
:1044200060911C01C8010E94B1140F5F1F4FEFCFB4
:10443000D09305018370809304010E94F10F24CE74
:1044400040917505509176056091770570917805DA
:104450002FB7F89480912A0590912B05A0912C05F7
:10446000B0912D052FBF84179507A607B70760F0F9
:10447000841B950BA60BB70B4097A105B10508F45B
:1044800051CD109206014ECD0197A109B109F0CF8F
:10449000E0913E05F0E0EC5BFA4F90E080E0219186
:1044A000DC01AC5DBC4F2C93019686309105B9F7C9
:1044B000E0912F05F0E0EF55FB4F808180932A03B8
:1044C00031CD1F920F920FB60F9211242F933F936D
:1044D0004F935F936F937F938F939F93AF93BF930C
:1044E000CF93DF93EF93FF93D091E900DF7080913A
:1044F000EC00C82FC17080FDC0E81092E9008091E7
:10450000F000877F8093F00078940E94BD11109294
:10451000E9008091F00088608093F000CD2BCF708F
:10452000C093E900FF91EF91DF91CF91BF91AF91DF
:104530009F918F917F916F915F914F913F912F91BB
:104540000F900FBE0F901F9018951F920F920FB6ED
:104550000F9211242F933F934F935F936F937F9309
:104560008F939F93AF93BF93EF93FF938091E1005D
:1045700082FF09C08091E20082FF05C08091E100C6
:104580008B7F8093E1008091DA0080FF24C08091CE
:10459000D80080FF20C08091DA008E7F8093DA00FF
:1045A0008091D90080FF9FC080E189BD82E189BDF3
:1045B00009B400FEFDCF81E080936B0580915E051C
:1045C000811109C00E94F2020E94BD038091E200A5
:1045D00084608093E2008091E10080FF17C08091A9
:1045E000E20080FF13C08091E2008E7F8093E200A2
:1045F0008091E20080618093E2008091D800806227
:104600008093D80019BC85E080936B058091E10010
:1046100084FF2DC08091E20084FF29C080E189BD24
:1046200082E189BD89B5982F917080FFFBCF809181
:10463000D8008F7D8093D8008091E1008F7E809399
:10464000E1008091E2008F7E8093E2008091E200A1
:1046500081608093E20080916C05882309F449C051
:1046600084E080936B050E94B2110E943307809111
:10467000E10083FF27C08091E20083FF23C0809187
:10468000E100877F8093E10082E080936B051092C8
:104690006C058091E1008E7F8093E1008091E200C3
:1046A0008E7F8093E2008091E20080618093E2003F
:1046B00042E060E080E00E948B038091F00088601F
:1046C0008093F000FF91EF91BF91AF919F918F91F7
:1046D0007F916F915F914F913F912F910F900FBEFE
:1046E0000F901F90189519BC10926B0510925E05E3
:1046F00072CF8091E30087FD93E090936B05B3CF79
:10470000CDB7DEB72A970FB6F894DEBF0FBECDBF88
:1047100084B7877F84BF0FB6F894A8958091600016
:10472000886180936000109260000FBE80E890E086
:104730000FB6F89480936100909361000FBE85B727
:10474000806885BF85B7806885BF0E94F2020E949D
:10475000BD038091E20084608093E20078948091B0
:104760006B058823A1F01091E9001F709091EC0077
:10477000892F817090FD80E8182B1092E9008091BC
:10478000E80083FD0E94BD111F701093E90082E0D4
:1047900084BD93E095BD9AEF97BD80936E008EE047
:1047A00090E00E94832791E0811101C090E09093F6
:1047B0000F010E94181061E070E0882309F404C121
:1047C00087E091E00E94FB2580910F0180910F010D
:1047D00096E0811190E090933E0586E0891B8093DE
:1047E0003D05A9E3B1E061E070E08D91E82FE2952D
:1047F000EF70F0E041A18F709B0101C0220F8A95FC
:10480000EAF7922F9095942391A382A1822B82A301
:1048100021E0AF33B20749F7A5E4B1E04CE451E041
:1048200061E070E08D91E82FE295EF70F0E011A16A
:104830008F709B0101C0220F8A95EAF7922F909505
:10484000912391A382A1822B82A34A175B0751F780
:10485000E1E3F5E0A4E4B5E011921D9285E0ED33CB
:10486000F807D1F790E080E00E948B278C3E9E4FA6
:1048700069F00E944F1190E080E00E948B278C3EEF
:104880009E4F21F00E944F110E94AD1545E050E06F
:104890006CE170E08DE795E00E94732780917D05C3
:1048A0008C7F11F40E94AD1552985A9A56985E9AD0
:1048B00089B182FB882780F94E998BC090E0892BC3
:1048C0008093300590910F0181E0982790932F05F8
:1048D000891B80932E0590E080E00E948B278C3E00
:1048E0009E4F11F00E944F1182E090E00E948327BA
:1048F000809351050E94E10E9093400580933F05FF
:1049000083E090E00E948327682F70E090E080E0D1
:104910000E942B0680E191E090934205809341052F
:10492000EE24EA9480E5C82E85E0D82E90E1892E09
:1049300022E1922E38E1A32EB12C40E4742E809116
:104940006B05853009F447C00E947A1E0E9418103A
:10495000882309F480C0E2E5F5E0A4E4B5E010E0C6
:1049600000E0302F8D912191281709F46EC090E05E
:10497000FF24F3942827422F4F2109F461C0998323
:104980003A838F2191E009F490E09B830E94AA046E
:104990008160782F9D838C8349815A816B818D81C1
:1049A0000E94EE1DF801EE5AFA4F8081F826F0823F
:1049B0000E94330790915005891709F4C0CF0E94D7
:1049C000330780935005BBCF87E091E00E94022619
:1049D000FBCE92E074CF80916B05843009F1109288
:1049E00043050FB6F894A895A09260000FBE709290
:1049F000600083B7817F846083BF83B7816083BF9A
:104A00007894889583B78E7F83BF0FB6F894A89566
:104A100080916000886180936000109260000FBEFA
:104A200080916A05882309F48ACF0E947A1EE4E403
:104A3000F5E0819181111FC0CE16DF06D1F77FCF3F
:104A40009F5FFF0C973009F096CF0F5F1F4F0C3020
:104A5000110509F086CFEE82EF8218860E94AA0423
:104A60008160782F9A8789874E815F8168858A85E2
:104A70000E94EE1D9DCF89BC99BC09B400FEFDCFFC
:104A80008091D8008F7D8093D8008091E000826073
:104A90008093E0008091E00081FDFCCF50CF7894BE
:104AA0001F921FB61F9211248F939F93AF93BF93B2
:104AB00080912A0590912B05A0912C05B0912D0590
:104AC0000196A11DB11D80932A0590932B05A093FB
:104AD0002C05B0932D05BF91AF919F918F911F90A1
:104AE0001FBE1F9018951F921FB61F9211248F93FF
:104AF0009F93AF93BF9380914305811113C0809121
:104B00002A0590912B05A0912C05B0912D05419679
:104B1000A11DB11D80932A0590932B05A0932C0510
:104B2000B0932D05BF91AF919F918F911F901FBEA4
:104B30001F9018958EE14B9B02C08150E1F74B9B73
:104B4000FECF08955B9880E28A95F1F75B9A08950D
:104B5000FC013BE03A95F1F798E020E080E031E09D
:104B600040E14A95F1F7880F4B9B02C081602327F3
:104B700042E04A95F1F7000040E14A95F1F7915083
:104B800079F790E19A95F1F799B132E03A95F1F71A
:104B9000000040E14A95F1F793FB992790F992279D
:104BA0002081920F90830895EF92FF920F931F93AD
:104BB000CF93DF930F92CDB7DEB719828C017C01C2
:104BC000E60EF11C0E151F0561F481E0998191112B
:104BD00080E00F90DF91CF911F910F91FF90EF90A8
:104BE00008950E949A25CE0101960E94A825F801F9
:104BF00081938F01E7CF9093830580938205539A29
:104C00005B9A0895909383058093820553985B9AED
:104C1000EB9AE9E6F0E080818F738083089561501C
:104C2000770B91E001C0990F6A95EAF720E031E037
:104C3000911108C0222391F05B9A80E28A95F1F7E6
:104C40005B980895492F482339F05B9A232740E267
:104C50004A95F1F79695ECCF5B98F9CF5B98EDCF3D
:104C6000FF920F931F93CF93DF93EC018C01060FFC
:104C7000111DC017D10731F4DF91CF911F910F9112
:104C8000FF900895F9900E94A22568E08F2D0E9460
:104C90000F26EFCF1F920F920FB60F9211242F9372
:104CA0003F934F935F936F937F938F939F93AF93B4
:104CB000BF93CF93DF93EF93FF935B98539AC09189
:104CC0008205D09183056D81662321F08E819F81BD
:104CD0000E9430260E94A22580E18A95F1F75B9818
:104CE00053985B9A80E18A95F1F76A81662309F10E
:104CF0008B819C810E94D425E881F981882311F061
:104D000088E001C082E080830E949A25FF91EF91A4
:104D1000DF91CF91BF91AF919F918F917F916F91D3
:104D20005F914F913F912F910F900FBE0F901F9069
:104D30001895E881F981E4CFCF93DF93C091820584
:104D4000D0918305F894539A5B9885E08A95F1F7A2
:104D5000000053985B9A80E28A95F1F74B9B0CC058
:104D6000539A5B9AE881F98181E08083789481E0AD
:104D700090E0DF91CF9108956D81662381F08E815F
:104D80009F810E94D42581110AC0539A5B9AE881C1
:104D9000F98182E08083789482E090E0EACF0E94FB
:104DA0009A2580E28A95F1F75B98539A80E18A957B
:104DB000F1F76A81662321F08B819C810E94302665
:104DC0000E94A225E881F9811082789490E080E029
:104DD000D0CFAA1BBB1B51E107C0AA1FBB1FA61740
:104DE000B70710F0A61BB70B881F991F5A95A9F794
:104DF00080959095BC01CD01089597FB072E16F480
:104E0000009407D077FD09D00E94E92607FC05D061
:104E10003EF4909581959F4F0895709561957F4FD1
:104E20000895EE0FFF1F0590F491E02D09948F92E5
:104E30009F92AF92BF92CF92DF92EF92FF92CF9369
:104E4000DF93EC01688179818A819B81611571050D
:104E50008105910521F464E279ED8BE597E02DE180
:104E600033EF41E050E00E94C52749015A019B0100
:104E7000AC01A7EAB1E40E94E4276B017C01ACEE2F
:104E8000B4EFA50194010E94F227DC01CB018C0D47
:104E90009D1DAE1DBF1DB7FF03C00197A109B048FE
:104EA00088839983AA83BB839F77DF91CF91FF90FB
:104EB000EF90DF90CF90BF90AF909F908F9008952C
:104EC0000E941727089580E091E00E941727089517
:104ED000B0E0A0E08093000190930101A093020153
:104EE000B09303010895DC01CB01FC01F999FECFD9
:104EF00006C0F2BDE1BDF89A319600B40D92415062
:104F00005040B8F70895F999FECF92BD81BDF89A47
:104F1000992780B50895A8E1B0E042E050E00C94F4
:104F20007527DC01A40FB51F4150504048F0CB015C
:104F3000840F951F2E910E94A22741505040D0F718
:104F40000895262FF999FECF92BD81BDF89A019759
:104F500000B4021639F01FBA20BD0FB6F894FA9AC1
:104F6000F99A0FBE08950396272F0E94A2270E9448
:104F7000A127252F0E94A227242F0C94A227019657
:104F8000272F0E94A2270C94A127052E97FB1EF421
:104F900000940E94DC2757FD07D00E94F72707FCEA
:104FA00003D04EF40C94DC27509540953095219514
:104FB0003F4F4F4F5F4F0895909580957095619545
:104FC0007F4F8F4F9F4F08950E941928A59F900DE6
:104FD000B49F900DA49F800D911D11240895B7FFDB
:104FE0000C94E4270E94E427821B930B0895A1E20E
:104FF0001A2EAA1BBB1BFD010DC0AA1FBB1FEE1F53
:10500000FF1FA217B307E407F50720F0A21BB30B9D
:10501000E40BF50B661F771F881F991F1A9469F719
:1050200060957095809590959B01AC01BD01CF0175
:105030000895A29FB001B39FC001A39F700D811D71
:105040001124911DB29F700D811D1124911D089591
:10505000F894FFCF950E950E9E0E9E0EA00E9E0EFE
:105060009E0E9E0E950E950EA50E9E0E9E0EA50EE4
:10507000A012C8126A14C8126A14FB121C136A1414
:105080002514321470197019DF19DF19371AA51990
:10509000A519A519511A271B361B361B2D184C189C
:1050A00067186C18711876187B18801885188A187C
:1050B0008F1894189918B218B518B818BB18BE18DC
:1050C000C318C6181A204F208220C8200F2158214B
:1050D0005E216121662169216E2171217421772170
:1050E0007A217D2180218321862189218E21912190
:0450F0009421D62110
:1050F40001000000FFFF031C03001C03072403013D
:105104007D04590F7C04230FEF0E0100FF0000FF04
:1051140078003131295A1B750A00FF010001000093
:10512400FFFF0000010001FF006636353497C6001A
:105134000000000000F0F1F4F5F6F7670001020347
:105144000405060708090A0B0C0D0E0F10111213A3
:105154001415161718191A1B1C1D1E1F202122FFB7
:10516400FFFFFFFF21223E3F404142434445464763
:1051740048494A4B4C4D4E4F505152535455565733
:1051840058595A5B5C5D5E5F5FFFFFFFFFFF5F5F27
:105194000B0E1C0E2A0E380E460E540E660E0B1CF9
:1051A4001C1C2A1C381C461C541C62190B2A1C2A61
:1051B4002A2A382A462A542A62270B381C382A38C5
:1051C40038384638543862350B461C462A46384629
:1051D400464653575D610042003400260018000A19
:1051E4001F0026002E0036003D0045004C005400F0
:1051F4006D0B6D186D276D356E4970556A5F5F6272
:10520400535B47543A4D2A4A1C4A0E4AD50EC40EE3
:10521400B60EA80E9A0E8C0E7A0ED51CC41CB61CA3
:10522400A81C9A1C8C1C7E19D52AC42AB62AA82A22
:105234009A2A8C2A7E27D538C438B638A8389A38A2
:105244008C387E35D546C446B646A8469A468D5710
:105254008361E042E034E026E018E00AC100BA00CD
:10526400B200AA00A3009B0094008C00730B731877
:105274007327733572497055765F81628D5B9954DB
:10528400A64DB64AC44AD24A0104040404040101E6
:1052940004040404040101040404040401010404D6
:1052A40004040401010101010101010202020202DC
:1052B40002020202020202020202020202020202CA
:1052C40002020202020201040404040401010404AF
:1052D4000404040101040404040401010404040496
:1052E40004010101010101010102020202020202A0
:1052F400020202020202020202020202020202028A
:04530400020202029D
:00000001FF
